:100000000C9462000C948A000C948A000C948A0070
:100010000C948A000C948A000C948A000C9491072A
:100020000C948A000C948A000C948A000C948A0028
:100030000C948A000C948A000C948A000C948A0018
:100040000C94EF060C948A000C945F070C9439070B
:100050000C948A000C948A000C948A000C948A00F8
:100060000C948A000C948A00000000080002010031
:100070000003040700000000000000000000000072
:10008000240027002A000000000023002600290089
:1000900000000000250028002B00040404040404D0
:1000A0000404020202020202030303030303010227
:1000B00004081020408001020408102001020408F6
:1000C0001020B60711241FBECFEFD8E0DEBFCDBF92
:1000D00011E0A0E0B1E0EEE7FBE102C005900D9277
:1000E000A63DB107D9F722E0A6EDB1E001C01D920F
:1000F000AF3CB207E1F710E0C2E6D0E004C02197C0
:10010000FE010E94AE0DC136D107C9F70E947508E5
:100110000C94BD0D0C94000080E480937C008091D1
:100120007A00806480937A0080917A0086FDFCCF0B
:1001300080917800909179000895CF92DF92EF92AC
:10014000FF92CF93809197028C3009F44FC038F41E
:100150008B30F1F060E070E080EC9FE741C08551AA
:100160008230C0F7C09193026C2F70E0762F662723
:1001700066277F7780919402682B90E080E00E9450
:10018000630C2DEC3CEC4CEC5DE30E94F60C4AC099
:100190006091930270E090E080E00E94630C6B013C
:1001A0007C01C0919402C7FF0AC0AC019B0160E0D2
:1001B00070E080E89FEB0E94F60B6B017C01CF7032
:1001C0006C2F70E090E080E00E94650C2DEC3CEC20
:1001D0004CEC5DE30E94F60CA70196010E94F70B20
:1001E000CF91FF90EF90DF90CF900895C091930250
:1001F0006C2F70E090E080E00E94630C6B017C014A
:10020000609194026F7070E090E080E00E94650C55
:100210002DEC3CEC4CEC5DE30E94F60CA701960142
:100220000E94F70BC7FFDCCF9058DACFCF92DF9256
:10023000EF92FF92CF93DF93B0919802A0E08111EB
:10024000AB2F8091990290E0880F991FAC014A571B
:100250005F4FC0909E02D0909F02E090A002F0906D
:10026000A10230E020E0FA01C591D491E881B90102
:1002700090E080E0EB23EA130AC02F5F3F4F6C153C
:100280007D058E059F0578F36FEF7FEFCB01DF9142
:10029000CF91FF90EF90DF90CF900895833081F061
:1002A00028F4813099F08230A9F008958730A9F0C0
:1002B0008830C9F08430B1F4809180008F7D03C014
:1002C000809180008F7780938000089584B58F7728
:1002D00084BD089584B58F7DFBCF8091B0008F776A
:1002E0008093B00008958091B0008F7DF9CFCF93B7
:1002F000DF93282F30E0F901E859FF4F8491F9018D
:10030000E255FF4FD491F901E656FF4FC491CC233B
:10031000A1F081110E944E01EC2FF0E0EE0FFF1FC3
:10032000EA57FF4FA591B491EC91ED2381E090E065
:1003300009F480E0DF91CF91089580E090E0FACF5A
:100340001F93CF93DF93282F30E0F901E859FF4F37
:100350008491F901E255FF4FD491F901E656FF4F20
:10036000C491CC23A9F0162F81110E944E01EC2FCD
:10037000F0E0EE0FFF1FE057FF4FA591B4918FB74C
:10038000F894EC91111108C0D095DE23DC938FBF57
:10039000DF91CF911F910895DE2BF8CFCF93DF939C
:1003A00090E0FC01E255FF4F249186569F4FFC01DF
:1003B00084918823D1F090E0880F991FFC01E458C4
:1003C000FF4FA591B491FC01E057FF4FC591D49127
:1003D000623071F49FB7F8943C91822F809583230B
:1003E0008C93E8812E2B28839FBFDF91CF910895B6
:1003F0008FB7F894EC912E2B2C938FBFF6CF1F93D1
:10040000CF93DF93182FEB0161E00E94CE0120977C
:1004100039F460E0812FDF91CF911F910C94A001FE
:10042000CF3FD10511F461E0F5CFE12FF0E0E859BD
:10043000FF4FE491E33031F140F4E130B1F0E230CC
:10044000E1F0C038D1057CF7E4CFE73029F1E8309E
:1004500059F1E430B1F78091800080628093800090
:10046000D0938B00C0938A0004C084B5806884BD9B
:10047000C7BDDF91CF911F91089584B5806284BD7F
:10048000C8BDF7CF80918000806880938000D093B2
:100490008900C0938800EDCF8091B0008068809380
:1004A000B000C093B300E5CF8091B000806280932C
:1004B000B000C093B400DDCF3FB7F8948091F00155
:1004C0009091F101A091F201B091F30126B5A89BA2
:1004D00005C02F3F19F00196A11DB11D3FBFBA2FD6
:1004E000A92F982F8827BC01CD01620F711D811D96
:1004F000911D42E0660F771F881F991F4A95D1F71B
:1005000008958F929F92AF92BF92CF92DF92EF9217
:10051000FF924B015C010E945C026B017C010E9416
:100520005C026C197D098E099F09683E7340810544
:100530009105A8F321E0821A9108A108B10888EE7C
:10054000C80E83E0D81EE11CF11C81149104A104A3
:10055000B10429F7FF90EF90DF90CF90BF90AF905C
:100560009F908F9008952FB7F8946091EC0170914F
:10057000ED018091EE019091EF012FBF0895CF9290
:10058000DF92EF92FF920F931F93CF93DF93CDB73C
:10059000DEB7C054D1400FB6F894DEBF0FBECDBF5A
:1005A0000E94B30200919A0210919B0220919C023A
:1005B00030919D026B017C01C01AD10AE20AF30A54
:1005C00097018601003D17402105310590F4809187
:1005D000A202C05CDE4F0FB6F894DEBF0FBECDBFE7
:1005E000DF91CF911F910F91FF90EF90DF90CF900F
:1005F000089560939A0270939B0280939C0290935B
:100600009D02109295021092940210929302109201
:1006100092021092910262E0809196020E94CE01B5
:1006200061E070E080E090E00E94810261E08091F2
:1006300096020E94CE0160E0809196020E94A00185
:10064000809197028551823020F58BE291E10197EC
:10065000F1F762E0809196020E94CE018091A302A0
:1006600090E08230910538F0880F991F880F991F0C
:1006700005970197F1F7F89480E00E9416016F3F0B
:100680007F4F8F4F9F4F61F41092A202789480E0C9
:10069000A0CF64E170E080E090E00E948102D9CFB9
:1006A00081E00E9416016F3F7F4F8F4F9F4F61F394
:1006B0008E010F5F1F4F6E012FEBC21A2EEFD20A71
:1006C000780180E00E941601F701608371838283C4
:1006D000938381E00E941601F7016483758386830A
:1006E0009783F8E0EF0EF11CEC14FD0451F77894B9
:1006F00030E020E0F801C080D180E280F3804481C6
:10070000558166817781FFEFCF16DF06EF06FF0682
:1007100031F04F3F8FEF58076807780719F41092B0
:10072000A202B5CFF90183E0F595E7958A95E1F747
:10073000EF56FD4F8081880FC416D506E606F706F2
:1007400010F180832F5F3F4F085F1F4F2832310524
:1007500089F6409195022091910280919202280F92
:100760003327331F80919302280F311D809194020B
:10077000820F932F911D99274817190681F681E062
:100780008093A20226CF8160DCCFAF92BF92CF923E
:10079000DF92EF92FF920F931F93CF93DF936C0141
:1007A0007B018B01040F151FEB015E01AE18BF0822
:1007B000C017D10759F06991D601ED91FC910190D4
:1007C000F081E02DC6010995892B79F7C501DF91EC
:1007D000CF911F910F91FF90EF90DF90CF90BF903E
:1007E000AF900895FC01538D448D252F30E0842F68
:1007F00090E0821B930B541710F0CF960895019749
:100800000895FC01918D828D981761F0A28DAE0F35
:10081000BF2FB11D5D968C91928D9F5F9F73928FBC
:1008200090E008958FEF9FEF0895FC01918D828DE8
:10083000981731F0828DE80FF11D858D90E00895B5
:100840008FEF9FEF0895FC01918D228D892F90E00D
:10085000805C9F4F821B91098F739927089584EFC5
:1008600091E00E94230421E0892B09F420E0822FEB
:10087000089580E090E0892B29F00E942F048111D7
:100880000C9400000895FC01A48DA80FB92FB11D90
:10089000A35ABF4F2C91848D90E001968F739927B6
:1008A000848FA689B7892C93A089B1898C91837094
:1008B00080648C93938D848D981306C00288F3898D
:1008C000E02D80818F7D80830895EF92FF920F93BA
:1008D0001F93CF93DF93EC0181E0888F9B8D8C8DEC
:1008E00098131AC0E889F989808185FF15C09FB7E0
:1008F000F894EE89FF896083E889F98980818370A3
:10090000806480839FBF81E090E0DF91CF911F9151
:100910000F91FF90EF900895F62E0B8D10E00F5F72
:100920001F4F0F731127E02E8C8D8E110CC00FB648
:1009300007FCFACFE889F989808185FFF5CFCE01E0
:100940000E944304F1CFEB8DEC0FFD2FF11DE35A14
:10095000FF4FF0829FB7F8940B8FEA89FB89808163
:100960008062CFCFCF93DF93EC01888D8823B9F0DD
:10097000AA89BB89E889F9898C9185FD03C08081AA
:1009800086FD0DC00FB607FCF7CF8C9185FFF2CF27
:10099000808185FFEDCFCE010E944304E9CFDF9136
:1009A000CF910895089590E080E008950F931F93EC
:1009B000CF93DF938B01EA01BC0183E00E94FF012A
:1009C000B80185E00E94FF01BE0186E0DF91CF9172
:1009D0001F910F910C94FF01CF93DF93EC0160E026
:1009E0008E810E94A00161E08E810E94A00160E0E2
:1009F0008E810E94A0018BE891E00197F1F7DF91D1
:100A0000CF910895CF92DF92EF92FF920F931F93B1
:100A1000CF93DF936C017C0187E0E80EF11CD0E0FE
:100A2000C0E0062F10E0B8010C2E02C07595679546
:100A30000A94E2F76170F70181917F010E94A001A1
:100A40002196C430D10579F7C601DF91CF911F916E
:100A50000F91FF90EF90DF90CF900C94EC04CF9229
:100A6000DF92EF92FF920F931F93CF93DF93EC01EE
:100A7000F62E642F8C810E94A0018D818F3F19F08A
:100A800060E00E94A0010F2D10E08F8584FF25C03B
:100A90006E0187E0C80ED11CF12CE12CB8010E2CA0
:100AA00002C0759567950A94E2F76170F60181912D
:100AB0006F010E94A001FFEFEF1AFF0A88E0E8161D
:100AC000F10461F7CE01DF91CF911F910F91FF905B
:100AD000EF90DF90CF900C94EC04B80184E0759512
:100AE00067958A95E1F7CE010E9402056F2DCE0130
:100AF000DF91CF911F910F91FF90EF90DF90CF90FA
:100B00000C94020540E0682F87EB92E00C942F05CF
:100B100081E00E9482058BE39FE10197F1F7089540
:100B2000CF93DF93823029F49091C602986090931E
:100B3000C6028093CA021092CB0280E48093CC025A
:100B400080E18093CD0280E58093CE0261E08091C8
:100B5000BB020E94CE018091BC028F3F19F061E080
:100B60000E94CE0161E08091BD020E94CE01C7EBE0
:100B7000D2E09E01275B32408091C60284FD0BC00B
:100B800084E090E021962817390744F461E08E81D3
:100B90000E94CE01EECF88E090E0F4CF8BE39DE0A1
:100BA0000197F1F760E08091BB020E94A00160E034
:100BB0008091BD020E94A0018091BC028F3F19F07C
:100BC00060E00E94A0018091C60284FD34C063E011
:100BD00087EB92E00E940205CBE4D6E4CE010197B8
:100BE000F1F763E087EB92E00E9402052197F1F7AD
:100BF00063E087EB92E00E94020583E592E00197B3
:100C0000F1F762E087EB92E00E9402058091C60254
:100C100080620E94820584E08093C7028CE00E947B
:100C200082050E94880582E08093C80286E0DF91F9
:100C3000CF910C94820580620E9482058BE496E439
:100C40000197F1F78091C60280620E94820583E5D8
:100C500092E00197F1F78091C60280620E948205BE
:100C6000D5CF9091CA02891710F08FEF890FE82F26
:100C7000F0E0E954FD4F848980680C94820541E0DE
:100C80000E942F0581E090E00895FB010190002073
:100C9000E9F73197AF01461B570BDC01ED91FC9151
:100CA0000280F381E02D09946115710511F00C9417
:100CB000450690E080E008950F931F93CF938C0139
:100CC000C62F0E94880580E00E943106B80187EB9C
:100CD00092E00E9454066CED75E080E090E00E9486
:100CE000810281E00E9431066DE271E0CC2311F0B7
:100CF00068E271E087EB92E00E9454066CED75E0CB
:100D000080E090E0CF911F910F910C9481024F925F
:100D10005F926F927F92AF92BF92CF92DF92EF92EB
:100D2000FF920F931F93CF93DF93CDB7DEB7A197B9
:100D30000FB6F894DEBF0FBECDBF5C010E94B302B8
:100D40006B017C0160E371E084EF91E00E94540646
:100D500019A28E010F5D1F4F8AE0482E512C612C85
:100D6000712CC701B601A30192010E948C0D69018B
:100D70007A01605DF80162938F01C114D104E1042E
:100D8000F10479F7309729F0BF0184EF91E00E94D8
:100D9000450662E371E084EF91E00E945406B501DC
:100DA00084EF91E00E9445066CE371E084EF91E0EE
:100DB0000E944506A1960FB6F894DEBF0FBECDBFC8
:100DC000DF91CF911F910F91FF90EF90DF90CF9027
:100DD000BF90AF907F906F905F904F9008951F925B
:100DE0000F920FB60F9211242F933F938F939F93DF
:100DF000AF93BF938091EC019091ED01A091EE0132
:100E0000B091EF013091EB0123E0230F2D3758F51E
:100E10000196A11DB11D2093EB018093EC019093ED
:100E2000ED01A093EE01B093EF018091F00190915C
:100E3000F101A091F201B091F3010196A11DB11D44
:100E40008093F0019093F101A093F201B093F3012C
:100E5000BF91AF919F918F913F912F910F900FBEB6
:100E60000F901F90189526E8230F0296A11DB11D23
:100E7000D2CF1F920F920FB60F9211242F933F9350
:100E80004F935F936F937F938F939F93AF93BF9392
:100E9000EF93FF9384EF91E00E944304FF91EF9161
:100EA000BF91AF919F918F917F916F915F914F9182
:100EB0003F912F910F900FBE0F901F9018951F928A
:100EC0000F920FB60F9211242F938F939F93EF934E
:100ED000FF93E0910402F09105028081E0910A0203
:100EE000F0910B0282FD1BC0908180910D028F5FFB
:100EF0008F7320910E02821741F0E0910D02F0E015
:100F0000EC50FE4F958F80930D02FF91EF919F91D2
:100F10008F912F910F900FBE0F901F901895808189
:100F2000F4CF1F920F920FB60F9211242F933F937D
:100F30004F935F936F937F938F939F93AF93BF93E1
:100F4000EF93FF93F0E0E0E00995FF91EF91BF91FF
:100F5000AF919F918F917F916F915F914F913F9151
:100F60002F910F900FBE0F901F901895CF93DF9386
:100F7000E4EFF1E01382128288EE93E0A0E0B0E0AB
:100F800084839583A683B7838EE091E091838083E9
:100F900085EC90E09587848784EC90E0978786873E
:100FA00080EC90E0918B808B81EC90E0938B828B36
:100FB00082EC90E0958B848B86EC90E0978B868B0F
:100FC000118E128E138E148EE7EBF2E013821282D2
:100FD00080E291E0918380838DE084838FEF85832D
:100FE0008CE086838BE087838AE0808789E0818735
:100FF00088E082871386148615861686178681E018
:101000000E949005EFEBF0E02491A4EAB2E0149680
:101010002C931497EEEBF0E0E4911596EC93159772
:101020008BEA90E0FC013491E32FF0E0EE0FFF1F1C
:10103000E057FF4F4591549117965C934E93169746
:10104000EAEAF0E0E491F0E0EE0FFF1FEA57FF4F0D
:101050004591549119965C934E931897FC01849195
:10106000E82FF0E0EE0FFF1FE458FF4FC591D49139
:101070001B96DC93CE931A9752961C92529781EC52
:101080009CE21D969C938E931C97E8812E2B2883BF
:101090001696ED91FC911797908114968C918095FE
:1010A00089238083A1E9B2E084E015968C9315979B
:1010B00086E116968C931697E2EBF0E0E491179692
:1010C000EC931797EEE9F0E0E4911896EC931897FB
:1010D00040E85EE360E070E01D964D935D936D9394
:1010E0007C935097DF91CF910895789484B5826076
:1010F00084BD84B5816084BD85B5826085BD85B5BC
:10110000816085BD80916E00816080936E00109239
:1011100081008091810082608093810080918100B4
:101120008160809381008091800081608093800045
:101130008091B10084608093B1008091B0008160A3
:101140008093B00080917A00846080937A008091CF
:101150007A00826080937A0080917A008160809327
:101160007A0080917A00806880937A001092C100A2
:1011700062E082E10E94CE0162E083E10E94CE0142
:1011800061E083E00E94CE0161E085E00E94CE0133
:1011900061E086E00E94CE0161E082E00E94CE0123
:1011A00082E00E94900562E0809196020E94CE014A
:1011B0000E94B302605D77408109910960939A02B1
:1011C00070939B0280939C0290939D0287E380938F
:1011D000A302E0910402F091050282E08083E09195
:1011E0000002F09101021082E0910202F0910302EC
:1011F0008FEC808310920C02E0910802F0910902BA
:1012000086E08083E0910602F09107028081806190
:101210008083E0910602F0910702808188608083DC
:10122000E0910602F0910702808180688083E0915E
:101230000602F091070280818F7D80830E948C00DE
:101240008C010E94BF02C82F882309F4BBC20E94F0
:101250009D00D1E09B01AC010E94630D811101C092
:10126000D0E00115110529F0C1E00F3F134009F04E
:10127000C0E06D2F8FE391E00E945C066C2F8EE43E
:1012800091E00E945C060E948805D111ACC281E009
:10129000C827D0E0D0930901C093080199E3492EF3
:1012A000512C612C712C22242394312CC2E0D0E0EB
:1012B00082E10E9477018C018091000190910101EF
:1012C0000817190771F00E94B3026093DB01709355
:1012D000DC018093DD019093DE0110930101009306
:1012E00000010E94B302C090DB01D090DC01E090CD
:1012F000DD01F090DE016C197D098E099F096333D1
:10130000710581059105E0F00115110509F078C11D
:101310008091DA01811114C0809108019091090136
:101320008130910509F451C108F44AC18230910518
:1013300009F450C1039709F454C1F1E0F093DA01C4
:101340008091080190910901019709F0E9C1E091AC
:10135000AE02F091AF0280819091A802892B808328
:10136000E091AA02F091AB0280819091A802892BB2
:1013700080838BE290E00197F1F7E091AA02F0916F
:10138000AB0290818091A80280958923808380910F
:10139000B602882351F0E091AE02F091AF02908145
:1013A0008091A802809589238083E091AC02F0911E
:1013B000AD0280819091A902892309F428C150E0EF
:1013C00040E0BA0190E080E0A30192010E948C0D00
:1013D00049015A018092E3019092E401A092E50153
:1013E000B092E6010E948C008C010E94BF0288230B
:1013F00009F481C10E949D006B017C01C092DF0154
:10140000D092E001E092E101F092E201A7019601A1
:10141000C701B6010E94630D81115CC0FAE08F160E
:101420009104A104B10408F06DC18091E70190918D
:10143000E801A091E901B091EA01892B8A2B8B2B5D
:1014400051F40E94B3026093E7017093E801809326
:10145000E9019093EA010E94B3028090E701909025
:10146000E801A090E901B090EA01681979098A09B8
:101470009B09613D77408105910550F08DE591E034
:101480009093030180930201D0930901C093080156
:1014900020E030E040EF51E4C701B6010E94F10CBA
:1014A00018160CF038C1E9E6F1E0F0930301E0937F
:1014B0000201D0930901C0930801083C1105FCF416
:1014C00087E791E09093030180930201D093090193
:1014D000C09308018091080190910901019779F466
:1014E00083E10E947701892B51F4E5E8F1E0F09364
:1014F0000301E0930201D0930901C0930801009118
:1015000008011091090180910601909107010817C7
:101510001907D9F00E94880580E00E943106013049
:10152000110509F411C108F404C10230110509F4D0
:1015300014C10330110509F419C18091080190917B
:101540000901909307018093060100910201109117
:1015500003016091040170910501C8010E94B40D5E
:10156000892B81F081E00E943106B80187EB92E07F
:101570000E9454068091020190910301909305010D
:1015800080930401809108019091090181309105B7
:1015900009F4FFC008F4F3C08230910509F4FEC0DD
:1015A000039709F408C180E090E0892B09F480CE0C
:1015B0000E942F04882309F47BCE0E94000078CE7D
:1015C0003092090120920801B8CE109209011092C0
:1015D0000801B3CE83E090E0909309018093080165
:1015E000ACCE3092090120920801EEE3F1E0F093D5
:1015F0000301E0930201F0930501E09304019DCE05
:101600000130110509F09CCE1092DA0199CE0E94AA
:101610005C02AB01BC018091B0029091B102B0E0DC
:10162000A0E08855994EAF4FBF4F840F951FA61F5E
:10163000B71F8093B2029093B302A093B402B09309
:10164000B502E091AC02F091AD0280819091A902C7
:10165000892381F40E945C020091B2021091B302CE
:101660002091B4023091B5020617170728073907F1
:1016700040F7A5CE0E945C022091B0023091B102E9
:10168000AB01BC01420F531F611D711D4093B2029B
:101690005093B3026093B4027093B502E091AC0230
:1016A000F091AD0280819091A902892381F00E947E
:1016B0005C020091B2021091B3022091B402309109
:1016C000B502061717072807390740F778CE0E949A
:1016D0005C022091B0023091B102A901455051093C
:1016E0002091B2023091B302FA01E21BF30BAF0179
:1016F000460F571F66CEC12CD12C80ECE82E8FE709
:10170000F82E7CCE1092E7011092E8011092E901C8
:101710001092EA01BDCE083C11050CF4D1CEDACE10
:101720001092E7011092E8011092E9011092EA018B
:10173000D1CE63E971E087EB92E00E94540688E91C
:1017400091E00E948706F9CE6DE971E087EB92E0A7
:101750000E94540682EA91E0F4CF6AEA71E087EBD6
:1017600092E00E9454068DE891E0EBCF66EB71E0C9
:1017700087EB92E00E94540681EC91E0E2CF4FEFBC
:1017800050E070E060E090E080E00E94D60460E00D
:101790000EC050E040E06FEF70E0F5CF50E040E069
:1017A00070E060E08FEF90E00E94D60461E082E09C
:1017B0000E94A001F8CE50E040E066E470E08FEFB8
:1017C00090E0E3CFD1E00115110509F04DCD61E0C6
:1017D0008FE391E00E945C0661E08EE491E00E945C
:1017E0005C060E948805D0E0C0E054CD5058BB276D
:1017F000AA270E940E0C0C94B70C0E94A90C38F07A
:101800000E94B00C20F039F49F3F19F426F40C9498
:10181000A60C0EF4E095E7FB0C94A00CE92F0E94B7
:10182000C80C58F3BA17620773078407950720F0AE
:1018300079F4A6F50C94EA0C0EF4E0950B2EBA2F71
:10184000A02D0B01B90190010C01CA01A0011124C6
:10185000FF27591B99F0593F50F4503E68F11A1672
:10186000F040A22F232F342F4427585FF3CF469503
:1018700037952795A795F0405395C9F77EF41F1625
:10188000BA0B620B730B840BBAF09150A1F0FF0FEF
:10189000BB1F661F771F881FC2F70EC0BA0F621FDB
:1018A000731F841F48F4879577956795B795F795CB
:1018B0009E3F08F0B0CF9395880F08F09927EE0F60
:1018C000979587950895E89409C097FB3EF4909505
:1018D0008095709561957F4F8F4F9F4F9923A9F009
:1018E000F92F96E9BB279395F69587957795679598
:1018F000B795F111F8CFFAF4BB0F11F460FF1BC0DC
:101900006F5F7F4F8F4F9F4F16C0882311F096E96E
:1019100011C0772321F09EE8872F762F05C066231C
:1019200071F096E8862F70E060E02AF09A95660FD5
:10193000771F881FDAF7880F9695879597F908958E
:1019400097F99F6780E870E060E008959FEF80EC72
:10195000089500240A941616170618060906089515
:1019600000240A9412161306140605060895092E7B
:101970000394000C11F4882352F0BB0F40F4BF2BEA
:1019800011F460FF04C06F5F7F4F8F4F9F4F08952A
:1019900057FD9058440F551F59F05F3F71F0479520
:1019A000880F97FB991F61F09F3F79F08795089505
:1019B000121613061406551FF2CF4695F1DF08C024
:1019C000161617061806991FF1CF86957105610541
:1019D00008940895E894BB2766277727CB0197F9E9
:1019E00008950E94680D08F48FEF08950E94090D74
:1019F0000C94B70C0E94A90C38F00E94B00C20F097
:101A0000952311F00C94A00C0C94A60C11240C94AA
:101A1000EB0C0E94C80C70F3959FC1F3950F50E03A
:101A2000551F629FF001729FBB27F00DB11D639F90
:101A3000AA27F00DB11DAA1F649F6627B00DA11D36
:101A4000661F829F2227B00DA11D621F739FB00DDC
:101A5000A11D621F839FA00D611D221F749F33274C
:101A6000A00D611D231F849F600D211D822F762FE5
:101A70006A2F11249F5750409AF0F1F088234AF0C2
:101A8000EE0FFF1FBB1F661F771F881F915050402E
:101A9000A9F79E3F510580F00C94A00C0C94EB0C20
:101AA0005F3FE4F3983ED4F3869577956795B795B5
:101AB000F795E7959F5FC1F7FE2B880F911D9695CF
:101AC000879597F908950E94680D880B990B0895E2
:101AD000990F0008550FAA0BE0E8FEEF161617063F
:101AE000E807F907C0F012161306E407F50798F0A7
:101AF000621B730B840B950B39F40A2661F0232BC0
:101B0000242B252B21F408950A2609F4A140A6953B
:101B10008FEF811D811D0895A1E21A2EAA1BBB1B08
:101B2000FD010DC0AA1FBB1FEE1FFF1FA217B307A9
:101B3000E407F50720F0A21BB30BE40BF50B661FBF
:101B4000771F881F991F1A9469F760957095809583
:101B500090959B01AC01BD01CF010895EE0FFF1FD1
:101B60000590F491E02D0994FB01DC018D91019029
:0E1B700080190110D9F3990B0895F894FFCF56
:101B7E0001003E01D00103000100000000006504D9
:101B8E00C503F203B204230401041504000000008F
:101B9E003F06C503D304D2044641494C004F4B00C7
:101BAE005B005D2053544154453A20000D0A005409
:101BBE00455354494E47204448542E2E2E0054452A
:101BCE005354494E47204C44522E2E2E004630314F
:101BDE00204F424A204A414D004630322048494764
:101BEE00482054454D5000463033204C4F57204C22
:101BFE0049474854004630205445535420464155D9
:101C0E004C54005359533A2049444C4500535953B0
:101C1E003A2052554E4E494E47005359533A20469C
:101C2E0041554C5421005359533A20524553455473
:101C3E000052455345542052455155495245440092
:061C4E00494E495400005C
:00000001FF
